:02000002B0004C
:1040000000400B0092530B00000006000C0005025C
:084010000401B41400000000DB
:0440180094500B00B5
:10401C00034613F8012B002AFBD1181A01387047FC
:10402C0009480A49884208B505D0094A824202D09B
:10403C00121A00F07FFF0748074A0021121A00F0FD
:10404C0087FF014808BD00BF38E60320F8520B007B
:10405C00A4E60320A4E60320F0E7032070B5074E86
:10406C00074C00F099FBA41BA4080025AC4200D11E
:10407C0070BD56F8043B98470135F7E7B0520B007A
:10408C00D4520B0000F014B808B500F02DF8BDE8C0
:10409C00084000F039BB00F019BA00F01FBA0078E4
:1040AC00B0FA80F04009704701230370704700009C
:1040BC0008B500F079FC40F6C41100F069FC012150
:1040CC00052000F061FE00210E2000F05DFE044B87
:1040DC0042F2AC621A80034B01221A8008BD00BF69
:1040EC00B4E60320B2E60320F7B50E2000F05DFE27
:1040FC00134D144E2B88144C80B2834228BF0346B8
:10410C002B8033882080984238BF1846308000F0CE
:10411C004BFC218807460A2200F091FA384600F041
:10412C0082FAFF232988009332882088002300F02C
:10413C00B7FA0146052003B0BDE8F04000F04CBED4
:10414C00B4E60320B2E60320B0E6032010B5074B1B
:10415C00074A9A600024C3E90044032000F02AF9BE
:10416C0021460120BDE8104000F02CB9A4E6032044
:10417C000000FFFF08B5024B1B689B68019308BD4C
:10418C006802030008B5024B1B68DB68019308BD8D
:10419C006802030008B5024B1B685B68019308BDFD
:1041AC002C02030008B5024B1B689B68019308BDE9
:1041BC002C02030008B5024B1B68DB68019308BD99
:1041CC002C02030008B5024B1B689B6A019308BDC7
:1041DC002C02030008B5024B1B681B6B019308BD36
:1041EC002C02030008B5024B1B689B6F019308BDA2
:1041FC002C02030008B5024B1B685B68019308BDD9
:10420C001802030008B5024B1B685B69019308BDDB
:10421C001802030008B5024B1B685B6C019308BDC8
:10422C004802030008B5024B1B685B69019308BD8B
:10423C006402030008B5024B1B68DB68019308BDE0
:10424C003C02030008B5024B1B681B69019308BDB7
:10425C003C02030008B5024B1B685B69019308BD67
:10426C003C02030008B5024B1B689B69019308BD17
:10427C003C02030008B5024B1B68DB69019308BDC7
:10428C003C02030008B5024B1B681B6A019308BD76
:10429C003C02030008B5024B1B689B6A019308BDE6
:1042AC003C02030008B5024B1B681B6C019308BD54
:1042BC003C02030008B5024B1B681B6A019308BD46
:1042CC002802030008B5024B1B685B6A019308BD0A
:1042DC002802030008B5024B1B689B6A019308BDBA
:1042EC002802030008B5024B1B68DB6A019308BD6A
:1042FC002802030008B5024B1B681B6B019308BD19
:10430C002802030008B5024B1B685B6B019308BDC8
:10431C002802030008B5024B1B681B6C019308BDF7
:10432C002802030008B5024B1B68DB69019308BD2A
:10433C003002030008B5024B1B681B6A019308BDD1
:10434C003002030008B5024B1B681B68019308BDC3
:10435C004C02030008B5024B1B685B68019308BD57
:10436C004C02030008B5024B1B681B69019308BD86
:10437C004C02030008B5024B1B685B69019308BD36
:10438C004C02030008B5024B1B689B69019308BDE6
:10439C004C02030008B5024B1B68DB69019308BD96
:1043AC004C02030008B5024B1B681B6A019308BD45
:1043BC004C02030008B5024B1B685B68019308BDF7
:1043CC002002030008B5024B1B68DB6A019308BD91
:1043DC002002030008B5034B1B68D3F88830019307
:1043EC0008BD00002002030008B5034B1B68D3F87E
:1043FC009430019308BD00002002030008B5024B65
:10440C001B685B68019308BD4002030008B5024BB2
:10441C001B689B68019308BD4002030008B5024B62
:10442C001B68DB68019308BD4002030008B5024B12
:10443C001B681B69019308BD4002030008B5024BC1
:10444C001B685B69019308BD4002030008B5024B71
:10445C001B689B69019308BD4002030008B5024B21
:10446C001B68DB69019308BD4002030008B5024BD1
:10447C001B681B6A019308BD4002030008B5024B80
:10448C001B681B6B019308BD4002030008B5024B6F
:10449C001B685B6B019308BD4002030008B5024B1F
:1044AC001B681B6C019308BD4002030008B5024B4E
:1044BC001B685B6C019308BD4002030008B5024BFE
:1044CC001B68DB6B019308BD4402030008B5024B6B
:1044DC001B681B68019308BD1C02030008B5024B46
:1044EC001B685B68019308BD1C02030008B5024BF6
:1044FC001B681B6C019308BD1C02030008B5024B22
:10450C001B685B6C019308BD1C0203000022406811
:10451C001146FFF7ABBF002240681146FFF7B6BF4C
:10452C0040680022FFF7AABF4068002281F0010119
:10453C00FFF794BF002340681A461946FFF786BF61
:10454C00002340681A461946FFF778BF00224068DE
:10455C001146FFF76BBF002240681146FFF756BFAC
:10456C00406800220221FFF759BF002340681A4619
:10457C00FFF744BF024B03225A60024A1A6070478D
:10458C00B8E60320B0500B0010B504460846217065
:10459C00FFF7C8FE00236360204610BD054B0222C6
:1045AC001A60054B054A9A600020C3E90000FFF72A
:1045BC0001BF00BFCCE60320C0E603200000FFFFD4
:1045CC00024800230360FFF725BE00BFD0E603209E
:1045DC00F8B506460D468F180024BD420CD0336842
:1045EC0015F8011B9B6830469847031E01DB1C44E1
:1045FC00F3E7002C08BF1C462046F8BD13B5044653
:10460C00084659B10191FFF703FD23680199DB6856
:10461C000246204602B0BDE81040184702B010BD5B
:10462C0003689B68184738B50D210546FFF7F8FF5E
:10463C000A2104462846FFF7F3FF204438BD30B565
:10464C008BB00023012A8DF8243098BF0A2209ACC4
:10465C000D46B1FBF2F101FB125303F0FF03092BE2
:10466C0094BF30333733DBB2AA4204F8013DEFD9A3
:10467C002146FFF7C3FF0BB030BD0000014B024ACF
:10468C001A607047D4E60320E4500B00024B1A6802
:10469C00024B1A60704700BF38E60320D8E60320AF
:1046AC008A4210B507D0441A0298C01A4443501AD3
:1046BC0094FBF0F0184410BD014B00229A60704737
:1046CC00DCE60320014B1860704700BF3CE603207A
:1046DC0008B50B4B43B100F067F903681B699847A9
:1046EC00002801DDAFF30080064B43B100F0B6FBB0
:1046FC0003681B699847002801DDAFF3008008BDF3
:10470C00000000000000000008B5FFF7E1FFFFF714
:10471C0079FD014B186008BD40E703200548064AA7
:10472C00064908B5121A00F005FC054B054A1A603B
:10473C0008BD00BF00F4032004F4032064530B00F5
:10474C0000F403201E1C279A07B5002300931A4679
:10475C006FF07701FFF748FE03B05DF804FB000033
:10476C0007B543880A2B08D0502B0BD1094B1B687B
:10477C004BB103B05DF804EB1847FFF7E5FF03B04E
:10478C005DF804FB002300931A466FF07701FFF7E6
:10479C002BFEF4E7F0E6032010B512480021FFF7DA
:1047AC00ADFE114B1A68114B9A42114B0CBF0122F2
:1047BC0000221A7001D0FFF7B1FFFFF71BFD044672
:1047CC0000F0CEFB0B4B13B12046AFF30080002161
:1047DC000848FFF773FEBDE8104007480021FFF7BB
:1047EC00F9BD00BFD1460B0000F403201E1C279A14
:1047FC00ECE60320000000006D470B00704710B57D
:10480C0018210446FFF749FC204610BDF0B5037D86
:10481C00062B8DB00E4600F104074FF0000412D0A9
:10482C0000F1080515F8011D0A223046FFF707FFB5
:10483C00AF42044419D0002CF4D02E213046FFF79F
:10484C00EFFE0444EEE72F236A4639460A208DF822
:10485C000040FFF7E7FC6846FFF7DAFB33680246D7
:10486C00DB68694630469847044620460DB0F0BDDB
:10487C0010B5054B0446112240F8043B002100F012
:10488C0067FB204610BD00BF0C510B000346074AC6
:10489C0010B543F8042B01F1100251F8044B43F806
:1048AC00044B9142F9D10A781A7010BD0C510B00CF
:1048BC0010B59DF8084044EA032343EA024242EA59
:1048CC00016104234160037510BD000007B5064B60
:1048DC000360CB7800938B784A780978FFF7E8FF70
:1048EC0003B05DF804FB00BF0C510B004174704722
:1048FC007047704708B50021007CFFF743FD40EA84
:10490C00E07008BD08B50121007CFFF73BFD40EAD3
:10491C00E07008BD08B5007CFFF72CFD20EAE070C4
:10492C0008BD08B5007CFFF71DFD20EAE07008BD4E
:10493C0013B50446007C0191FFF71CFD002801997A
:10494C0001DC607C20B1207CFFF724FD20EAE070C4
:10495C0002B010BD007CFFF725BD10B51421044634
:10496C00FFF79BFB204610BD10B54FF47A7304463D
:10497C0008460021C4E90113044B23600123207471
:10498C0063741146FFF7DEFC204610BD20510B006E
:10499C00007C0022FFF7DEBC10B514220446002177
:1049AC0000F0D6FA204610BD10B50F4C88B003A805
:1049BC00FFF7F2FF2178BFF35B8F11F001010FD1EC
:1049CC0020460191FFF76BFB019948B103AA0748F8
:1049DC00FFF7CAFF2046FFF767FB054800F0A4FA73
:1049EC00024808B010BD00BFF4E60320F8E603202F
:1049FC00FD480B0070474174704708B5007CFFF709
:104A0C0049FC20EAE07008BD08B5007CFFF71AFCF1
:104A1C0020EAE07008BD08B5007CFFF723FC40EAF3
:104A2C00E07008BD08B5007CFFF714FC40EAE070AC
:104A3C0008BD007CFFF71EBC37B5457C04462DB184
:104A4C00207C03B0BDE83040FFF7F4BB007C019143
:104A5C00FFF720FC00280199F2DC284603B030BD9A
:104A6C0010B514210446FFF718FB204610BD0000BA
:104A7C0010B54FF47A730446084611460022C4E977
:104A8C000123044B2360012320746374FFF70AFC99
:104A9C00204610BD50510B007047F8B50646154620
:104AAC000C468F18BC4206D0336814F8011B9B6867
:104ABC0030469847F6E72846F8BD007C0022FFF701
:104ACC00F9BB007C0021FFF7FDBB007C0021FFF748
:104ADC0001BC007C0021FFF705BC007C0021FFF726
:104AEC0009BC10B514210446FFF7D7FA204610BDB7
:104AFC0038B5044615464FF47A730022C4E90123F5
:104B0C00094B2174084623602946FFF703FCBF308C
:104B1C0008D16B69DB0705D56868FFF7DFFCE8682F
:104B2C00FFF7DCFC204638BD80510B0000224068AA
:104B3C001146FFF77BBC002240681146FFF796BC7C
:104B4C00002240681146FFF7A1BC40680022FFF725
:104B5C0095BC4068002281F00101FFF77FBC002367
:104B6C0040681A461946FFF771BC002340681A4684
:104B7C001946FFF763BC002240681146FFF746BC9C
:104B8C00406800220221FFF749BC002340681A4606
:104B9C00FFF734BC024B04225A60024A1A60704779
:104BAC000CE70320A8510B00002340681A46FFF7BE
:104BBC0025BC406800220221FFF730BC002240686F
:104BCC001146FFF723BC002240681146FFF72EBCAC
:104BDC00002340681A461946FFF730BC0023406892
:104BEC001A461946FFF732BC40680021FFF756BC45
:104BFC0040680021FFF75ABC4068002281F0010197
:104C0C00FFF72CBC40680022FFF738BC002240683C
:104C1C001146FFF73BBC002240681146FFF726BC4B
:104C2C002DE9F04395B014460D460746FFF720FEDC
:104C3C0000211C220DA8009100F08AF940230C934E
:104C4C0020466B460CAA0021FFF79CFA044600286C
:104C5C004BD1024601216868FFF7E8FB0221804630
:104C6C0022466868FFF7E2FB009E81462146002E33
:104C7C003BD0002939D17368022B03D00A2B11D0F9
:104C8C00F669F4E7B8F1000FFAD0716906A804319F
:104C9C0007ADFFF71BFE0FCD3C1D0FC42B68237017
:104CAC004146EDE7B9F1000FEAD07469102201A872
:104CBC0000F04EF906238DF8143001AD04F1080311
:104CCC001834186859682A4603C20833A34215469B
:104CDC00F7D101A906A807ADFFF7D8FD0FCD3C1DF4
:104CEC000FC42B6823704946CAE70098FFF742FAB5
:104CFC00384615B0BDE8F083024B034A1A60002217
:104D0C005A60704714E70320E4510B00232813B5B5
:104D1C0002D9002002B010BDA0F10B03022B1AD84F
:104D2C00174C2178BFF35B8F11F001010BD120469A
:104D3C000191FFF7B4F9019928B11248FFF724FC4F
:104D4C002046FFF7B1F90F4B1878FFF7F3FA00285C
:104D5C00DFD10120DEE7012809D800F0BFF80021DF
:104D6C00007CFFF7CFFA80F00100C0B2D2E709381F
:104D7C000128EED800F072F8007CFFF783FAF2E716
:104D8C001CE7032020E70320232838B504460D46F2
:104D9C000AD8FF2908D0FFF7B9FF28B129462046C9
:104DAC00BDE83840FFF7FEB938BD0D2810B50446F4
:104DBC009CBF0E34A4B22046FFF7A8FF50B10321CC
:104DCC002046FFF7E7F9032804D12046BDE8104040
:104DDC00FFF700BA002010BD38B504460D46FFF7AA
:104DEC0095FFF0B104212046FFF7D4F9042805D132
:104DFC00A9B22046BDE83840FFF7E4B902212046AD
:104E0C00FFF7C8F902280CD12046FFF7D3F9012887
:104E1C0001D0042805D129462046BDE83840FFF7CB
:104E2C00E1B938BD7047000038B5044614252A4650
:104E3C00002100F08DF82580402507492581284662
:104E4C00258200F06FF804496060284600F06AF88B
:104E5C00E060204638BD00BF18520B0030B50E4D37
:104E6C002978BFF35B8F11F0010487B011D128466C
:104E7C00FFF715F968B101A8FFF7D6FF01AA214683
:104E8C000648FFF7F5FD2846FFF70EF9044800F039
:104E9C004BF8024807B030BD28E703202CE703206D
:104EAC00314E0B007047000038B50A4B03600123EC
:104EBC00044643610849202000F034F82025606046
:104ECC000549A560284600F02DF8C4E903052046E5
:104EDC0038BD00BF1800010018520B0030B50E4D44
:104EEC002978BFF35B8F11F0010487B011D12846EC
:104EFC00FFF7D5F868B16846FFF7D6FF6A4621463A
:104F0C000648FFF7F5FD2846FFF7CEF8044800F0F9
:104F1C000BF8024807B030BD44E7032048E70320F4
:104F2C00B14E0B00FFF7B7B8002301461A461846DE
:104F3C0000F044B80A44914200F1FF3300D17047AD
:104F4C0010B511F8014B03F8014F9142F9D110BD86
:104F5C0002440346934200D1704703F8011BF9E762
:104F6C0038B5104B1D68AB6B0446B3B91820FFF76E
:104F7C00ADFA0246A86320B90B4B0C484221FFF74F
:104F8C00B5FA0B490B4BC0E900130B4B83600B2399
:104F9C00838100210120C2E90401AB6B00221C615A
:104FAC005A6138BD3CE6032019520B0030520B00FD
:104FBC000E33CDAB34126DE6ECDE05002DE9F84373
:104FCC00DFF8B8800646D8F800001F460D4691461B
:104FDC0000F056F8254B1C6834B9254C1C60254B49
:104FEC0013B11B68C4F8883063681F2B07DDD8F831
:104FFC00000000F047F84FF0FF30BDE8F8834EB3E7
:10500C00D4F8880088B91C4B23B9D8F8000000F0FC
:10501C0038F8F0E74FF48470FFF758FA0028F4D012
:10502C000023C0E94033C4F88800636840F823903B
:10503C0001229A4000EB8301D0F800311343C0F8F1
:10504C000031022EC1F8807002BFD0F80431134336
:10505C00C0F804316368D8F800005A1C023362604F
:10506C0044F8235000F00EF80020C6E7E8E70320D0
:10507C005CE7032000000000D9440B00A0E60320ED
:10508C0070477047704700002D400B0069400B00C3
:10509C0091400B0095400B00000000000000000048
:1050AC000000000077450B006D450B0063450B00BD
:1050BC0059450B004D450B0041450B00F54B0B00C2
:1050CC00FD4B0B0035450B002D450B0023450B000C
:1050DC0019450B002D4C0B006170700025592D25C6
:1050EC006D2D25645425483A254D3A2553257A00D3
:1050FC0061736374696D65000000000000000000BE
:10510C0019480B0009480B000B480B00000000006D
:10511C0000000000FF480B0067490B003D490B00E5
:10512C00DD450B002F490B0001490B0011490B0009
:10513C0061490B0021490B00F9480B0000000000ED
:10514C0000000000014A0B006D4A0B00454A0B00A1
:10515C00DD450B00154A0B00314A0B00234A0B00AE
:10516C003F4A0B00034A0B00074A0B0000000000EB
:10517C0000000000A54A0B00EF4A0B00C74A0B00C9
:10518C00A74A0B00CF4A0B00D74A0B00DF4A0B0093
:10519C00E74A0B000000000000000000974B0B00DA
:1051AC008D4B0B00834B0B00394B0B00774B0B00DB
:1051BC006B4B0B00F54B0B00FD4B0B005F4B0B00CF
:1051CC00574B0B004D4B0B00434B0B002D4C0B0066
:1051DC000000000000000000B54B0B00BF4B0B00A3
:1051EC00C94B0B00D34B0B00DD4B0B00E94B0B00F9
:1051FC00F54B0B00FD4B0B00054C0B00114C0B0041
:10520C00194C0B00234C0B002D4C0B000052454548
:10521C004E54206D616C6C6F6320737563636565B0
:10522C00646564002F6D6E742F776F726B73706191
:10523C0063652F776F726B73706163652F474343A0
:10524C002D31302D706970656C696E652F6A656ED5
:10525C006B696E732D4743432D31302D706970652A
:10526C006C696E652D34385F323032303131323406
:10527C005F313630363138303634312F7372632F1C
:10528C006E65776C69622F6E65776C69622F6C69DD
:10529C0062632F7374646C69622F72616E642E6327
:1052AC000000000059410B0081450B00A9450B0083
:1052BC00CD450B0089460B0099460B00C5460B00EB
:0852CC00A14B0B00054D0B0086
:1052D400040000001400000003000000474E5500C5
:1052E4008114183BBEEEC97FF603772A5A84AE3484
:0452F400E782646D7C
:1052F800FC500B0040E60320000000000000000006
:105308000000000000000000000000000000000095
:105318000000000000000000000000000000000085
:105328000000000000000000000000000000000075
:105338000000000000000000000000000000000065
:105348000000000000000000000000000000000055
:0C5358000000000000000000ECE7032053
:045364000000000045
:10536E0000000102030405060708090A0B0C0D0EC6
:10537E000F101112131415161718191A1B1C1D1EB7
:04538E001F202800B4
:045392007856341203
:04000003B000401CED
:00000001FF
